{
    "contractName": "LandRegistry",
    "abi": [
        {
            "anonymous": false,
            "inputs": [
                {
                    "indexed": false,
                    "internalType": "uint256",
                    "name": "id",
                    "type": "uint256"
                },
                {
                    "indexed": false,
                    "internalType": "string",
                    "name": "location",
                    "type": "string"
                },
                {
                    "indexed": false,
                    "internalType": "uint256",
                    "name": "size",
                    "type": "uint256"
                },
                {
                    "indexed": false,
                    "internalType": "address",
                    "name": "owner",
                    "type": "address"
                }
            ],
            "name": "LandRegistered",
            "type": "event"
        },
        {
            "inputs": [],
            "name": "landCount",
            "outputs": [
                {
                    "internalType": "uint256",
                    "name": "",
                    "type": "uint256"
                }
            ],
            "stateMutability": "view",
            "type": "function"
        },
        {
            "inputs": [
                {
                    "internalType": "uint256",
                    "name": "",
                    "type": "uint256"
                }
            ],
            "name": "lands",
            "outputs": [
                {
                    "internalType": "uint256",
                    "name": "id",
                    "type": "uint256"
                },
                {
                    "internalType": "string",
                    "name": "location",
                    "type": "string"
                },
                {
                    "internalType": "uint256",
                    "name": "size",
                    "type": "uint256"
                },
                {
                    "internalType": "address",
                    "name": "owner",
                    "type": "address"
                }
            ],
            "stateMutability": "view",
            "type": "function"
        },
        {
            "inputs": [
                {
                    "internalType": "string",
                    "name": "_location",
                    "type": "string"
                },
                {
                    "internalType": "uint256",
                    "name": "_size",
                    "type": "uint256"
                }
            ],
            "name": "registerLand",
            "outputs": [],
            "stateMutability": "nonpayable",
            "type": "function"
        },
        {
            "inputs": [
                {
                    "internalType": "uint256",
                    "name": "_id",
                    "type": "uint256"
                },
                {
                    "internalType": "address",
                    "name": "_newOwner",
                    "type": "address"
                }
            ],
            "name": "transferLand",
            "outputs": [],
            "stateMutability": "nonpayable",
            "type": "function"
        }
    ],
    "bytecode": "0x608060405234801561000f575f80fd5b50610b518061001d5f395ff3fe608060405234801561000f575f80fd5b506004361061004a575f3560e01c8063c798ff7d1461004e578063ce924ed91461006a578063d7bce65814610086578063e261f1e5146100a4575b5f80fd5b61006860048036038101906100639190610456565b6100d7565b005b610084600480360381019061007f91906105d0565b6101cc565b005b61008e6102e2565b60405161009b9190610639565b60405180910390f35b6100be60048036038101906100b99190610652565b6102e8565b6040516100ce9493929190610706565b60405180910390f35b3373ffffffffffffffffffffffffffffffffffffffff165f808481526020019081526020015f206003015f9054906101000a900473ffffffffffffffffffffffffffffffffffffffff1673ffffffffffffffffffffffffffffffffffffffff1614610177576040517f08c379a000000000000000000000000000000000000000000000000000000000815260040161016e906107c0565b60405180910390fd5b805f808481526020019081526020015f206003015f6101000a81548173ffffffffffffffffffffffffffffffffffffffff021916908373ffffffffffffffffffffffffffffffffffffffff1602179055505050565b60015f8154809291906101de9061080b565b9190505550604051806080016040528060015481526020018381526020018281526020013373ffffffffffffffffffffffffffffffffffffffff168152505f8060015481526020019081526020015f205f820151815f0155602082015181600101908161024b9190610a4c565b50604082015181600201556060820151816003015f6101000a81548173ffffffffffffffffffffffffffffffffffffffff021916908373ffffffffffffffffffffffffffffffffffffffff1602179055509050507f53a976a9b9d61df3bb2e08e33448938aea67fb03572279eb18ed48cdd6fad04e6001548383336040516102d69493929190610706565b60405180910390a15050565b60015481565b5f602052805f5260405f205f91509050805f01549080600101805461030c9061087f565b80601f01602080910402602001604051908101604052809291908181526020018280546103389061087f565b80156103835780601f1061035a57610100808354040283529160200191610383565b820191905f5260205f20905b81548152906001019060200180831161036657829003601f168201915b505050505090806002015490806003015f9054906101000a900473ffffffffffffffffffffffffffffffffffffffff16905084565b5f604051905090565b5f80fd5b5f80fd5b5f819050919050565b6103db816103c9565b81146103e5575f80fd5b50565b5f813590506103f6816103d2565b92915050565b5f73ffffffffffffffffffffffffffffffffffffffff82169050919050565b5f610425826103fc565b9050919050565b6104358161041b565b811461043f575f80fd5b50565b5f813590506104508161042c565b92915050565b5f806040838503121561046c5761046b6103c1565b5b5f610479858286016103e8565b925050602061048a85828601610442565b9150509250929050565b5f80fd5b5f80fd5b5f601f19601f8301169050919050565b7f4e487b71000000000000000000000000000000000000000000000000000000005f52604160045260245ffd5b6104e28261049c565b810181811067ffffffffffffffff82111715610501576105006104ac565b5b80604052505050565b5f6105136103b8565b905061051f82826104d9565b919050565b5f67ffffffffffffffff82111561053e5761053d6104ac565b5b6105478261049c565b9050602081019050919050565b828183375f83830152505050565b5f61057461056f84610524565b61050a565b9050828152602081018484840111156105905761058f610498565b5b61059b848285610554565b509392505050565b5f82601f8301126105b7576105b6610494565b5b81356105c7848260208601610562565b91505092915050565b5f80604083850312156105e6576105e56103c1565b5b5f83013567ffffffffffffffff811115610603576106026103c5565b5b61060f858286016105a3565b9250506020610620858286016103e8565b9150509250929050565b610633816103c9565b82525050565b5f60208201905061064c5f83018461062a565b92915050565b5f60208284031215610667576106666103c1565b5b5f610674848285016103e8565b91505092915050565b5f81519050919050565b5f82825260208201905092915050565b5f5b838110156106b4578082015181840152602081019050610699565b5f8484015250505050565b5f6106c98261067d565b6106d38185610687565b93506106e3818560208601610697565b6106ec8161049c565b840191505092915050565b6107008161041b565b82525050565b5f6080820190506107195f83018761062a565b818103602083015261072b81866106bf565b905061073a604083018561062a565b61074760608301846106f7565b95945050505050565b7f4f6e6c7920746865206f776e65722063616e207472616e7366657220746865205f8201527f6c616e6400000000000000000000000000000000000000000000000000000000602082015250565b5f6107aa602483610687565b91506107b582610750565b604082019050919050565b5f6020820190508181035f8301526107d78161079e565b9050919050565b7f4e487b71000000000000000000000000000000000000000000000000000000005f52601160045260245ffd5b5f610815826103c9565b91507fffffffffffffffffffffffffffffffffffffffffffffffffffffffffffffffff8203610847576108466107de565b5b600182019050919050565b7f4e487b71000000000000000000000000000000000000000000000000000000005f52602260045260245ffd5b5f600282049050600182168061089657607f821691505b6020821081036108a9576108a8610852565b5b50919050565b5f819050815f5260205f209050919050565b5f6020601f8301049050919050565b5f82821b905092915050565b5f6008830261090b7fffffffffffffffffffffffffffffffffffffffffffffffffffffffffffffffff826108d0565b61091586836108d0565b95508019841693508086168417925050509392505050565b5f819050919050565b5f61095061094b610946846103c9565b61092d565b6103c9565b9050919050565b5f819050919050565b61096983610936565b61097d61097582610957565b8484546108dc565b825550505050565b5f90565b610991610985565b61099c818484610960565b505050565b5b818110156109bf576109b45f82610989565b6001810190506109a2565b5050565b601f821115610a04576109d5816108af565b6109de846108c1565b810160208510156109ed578190505b610a016109f9856108c1565b8301826109a1565b50505b505050565b5f82821c905092915050565b5f610a245f1984600802610a09565b1980831691505092915050565b5f610a3c8383610a15565b9150826002028217905092915050565b610a558261067d565b67ffffffffffffffff811115610a6e57610a6d6104ac565b5b610a78825461087f565b610a838282856109c3565b5f60209050601f831160018114610ab4575f8415610aa2578287015190505b610aac8582610a31565b865550610b13565b601f198416610ac2866108af565b5f5b82811015610ae957848901518255600182019150602085019450602081019050610ac4565b86831015610b065784890151610b02601f891682610a15565b8355505b6001600288020188555050505b50505050505056fea2646970667358221220588473ac5c1e6d89408312151ddb1f1a97bef5782c8ffbdfda79a5f57246aa2d64736f6c63430008150033",
    "immutableReferences": {},
    "source": "// SPDX-License-Identifier: MIT\npragma solidity >=0.5 <=0.9.0;\n\ncontract LandRegistry {\n    struct Land {\n        uint id;\n        string location;\n        uint size;\n        address owner;\n    }\n\n    mapping(uint => Land) public lands;\n    uint public landCount;\n\n    event LandRegistered(uint id, string location, uint size, address owner);\n\n    function registerLand(string memory _location, uint _size) public {\n        landCount++;\n        lands[landCount] = Land(landCount, _location, _size, msg.sender);\n        emit LandRegistered(landCount, _location, _size, msg.sender);\n    }\n\n    function transferLand(uint _id, address _newOwner) public {\n        require(\n            lands[_id].owner == msg.sender,\n            \"Only the owner can transfer the land\"\n        );\n        lands[_id].owner = _newOwner;\n    }\n}\n",
    "sourcePath": "/Users/rishimishra/Documents/GitHub/Final-Year-Project/landregistration/contracts/LandRegistry.sol",
    "compiler": {
        "name": "solc",
        "version": "0.8.21+commit.d9974bed.Emscripten.clang"
    },
    "schemaVersion": "3.4.16",
    "updatedAt": "2025-02-18T18:32:47.379Z",
    "devdoc": {
        "kind": "dev",
        "methods": {},
        "version": 1
    },
    "userdoc": {
        "kind": "user",
        "methods": {},
        "version": 1
    }
}