{
  "contractName": "LandRegistry",
  "abi": [
    {
      "inputs": [],
      "stateMutability": "nonpayable",
      "type": "constructor"
    },
    {
      "anonymous": false,
      "inputs": [
        {
          "indexed": false,
          "internalType": "uint256",
          "name": "id",
          "type": "uint256"
        },
        {
          "indexed": false,
          "internalType": "address",
          "name": "owner",
          "type": "address"
        },
        {
          "indexed": false,
          "internalType": "string",
          "name": "location",
          "type": "string"
        },
        {
          "indexed": false,
          "internalType": "uint256",
          "name": "area",
          "type": "uint256"
        }
      ],
      "name": "LandRegistered",
      "type": "event"
    },
    {
      "anonymous": false,
      "inputs": [
        {
          "indexed": false,
          "internalType": "uint256",
          "name": "id",
          "type": "uint256"
        },
        {
          "indexed": false,
          "internalType": "address",
          "name": "from",
          "type": "address"
        },
        {
          "indexed": false,
          "internalType": "address",
          "name": "to",
          "type": "address"
        }
      ],
      "name": "LandTransferred",
      "type": "event"
    },
    {
      "inputs": [],
      "name": "landCount",
      "outputs": [
        {
          "internalType": "uint256",
          "name": "",
          "type": "uint256"
        }
      ],
      "stateMutability": "view",
      "type": "function",
      "constant": true
    },
    {
      "inputs": [
        {
          "internalType": "uint256",
          "name": "",
          "type": "uint256"
        }
      ],
      "name": "lands",
      "outputs": [
        {
          "internalType": "uint256",
          "name": "id",
          "type": "uint256"
        },
        {
          "internalType": "string",
          "name": "location",
          "type": "string"
        },
        {
          "internalType": "uint256",
          "name": "area",
          "type": "uint256"
        },
        {
          "internalType": "address",
          "name": "owner",
          "type": "address"
        }
      ],
      "stateMutability": "view",
      "type": "function",
      "constant": true
    },
    {
      "inputs": [
        {
          "internalType": "address",
          "name": "",
          "type": "address"
        },
        {
          "internalType": "uint256",
          "name": "",
          "type": "uint256"
        }
      ],
      "name": "ownerLands",
      "outputs": [
        {
          "internalType": "uint256",
          "name": "",
          "type": "uint256"
        }
      ],
      "stateMutability": "view",
      "type": "function",
      "constant": true
    },
    {
      "inputs": [
        {
          "internalType": "string",
          "name": "_location",
          "type": "string"
        },
        {
          "internalType": "uint256",
          "name": "_area",
          "type": "uint256"
        }
      ],
      "name": "registerLand",
      "outputs": [],
      "stateMutability": "nonpayable",
      "type": "function"
    },
    {
      "inputs": [
        {
          "internalType": "uint256",
          "name": "_landId",
          "type": "uint256"
        },
        {
          "internalType": "address",
          "name": "_to",
          "type": "address"
        }
      ],
      "name": "transferLand",
      "outputs": [],
      "stateMutability": "nonpayable",
      "type": "function"
    },
    {
      "inputs": [
        {
          "internalType": "uint256",
          "name": "_landId",
          "type": "uint256"
        }
      ],
      "name": "verifyLand",
      "outputs": [
        {
          "internalType": "string",
          "name": "location",
          "type": "string"
        },
        {
          "internalType": "uint256",
          "name": "area",
          "type": "uint256"
        },
        {
          "internalType": "address",
          "name": "owner",
          "type": "address"
        }
      ],
      "stateMutability": "view",
      "type": "function",
      "constant": true
    },
    {
      "inputs": [
        {
          "internalType": "address",
          "name": "_owner",
          "type": "address"
        }
      ],
      "name": "getLandsByOwner",
      "outputs": [
        {
          "internalType": "uint256[]",
          "name": "",
          "type": "uint256[]"
        }
      ],
      "stateMutability": "view",
      "type": "function",
      "constant": true
    }
  ],
  "bytecode": "0x608060405234801561001057600080fd5b5060008081905550611238806100276000396000f3fe608060405234801561001057600080fd5b506004361061007d5760003560e01c8063d0dea6e21161005b578063d0dea6e2146100ea578063d7bce6581461011a578063e261f1e514610138578063f9c43bdf1461016b5761007d565b8063455b9d2314610082578063c798ff7d146100b2578063ce924ed9146100ce575b600080fd5b61009c60048036038101906100979190610a39565b61019d565b6040516100a99190610b2e565b60405180910390f35b6100cc60048036038101906100c79190610b7c565b610234565b005b6100e860048036038101906100e39190610d02565b61054b565b005b61010460048036038101906100ff9190610d5e565b6106d5565b6040516101119190610dad565b60405180910390f35b610122610706565b60405161012f9190610dad565b60405180910390f35b610152600480360381019061014d9190610dc8565b61070c565b6040516101629493929190610e8c565b60405180910390f35b61018560048036038101906101809190610dc8565b6107e4565b60405161019493929190610ed8565b60405180910390f35b6060600260008373ffffffffffffffffffffffffffffffffffffffff1673ffffffffffffffffffffffffffffffffffffffff16815260200190815260200160002080548060200260200160405190810160405280929190818152602001828054801561022857602002820191906000526020600020905b815481526020019060010190808311610214575b50505050509050919050565b813373ffffffffffffffffffffffffffffffffffffffff166001600083815260200190815260200160002060030160009054906101000a900473ffffffffffffffffffffffffffffffffffffffff1673ffffffffffffffffffffffffffffffffffffffff16146102d9576040517f08c379a00000000000000000000000000000000000000000000000000000000081526004016102d090610f88565b60405180910390fd5b600073ffffffffffffffffffffffffffffffffffffffff168273ffffffffffffffffffffffffffffffffffffffff161415610349576040517f08c379a000000000000000000000000000000000000000000000000000000000815260040161034090610ff4565b60405180910390fd5b6000600260003373ffffffffffffffffffffffffffffffffffffffff1673ffffffffffffffffffffffffffffffffffffffff168152602001908152602001600020905060005b818054905081101561044e57848282815481106103af576103ae611014565b5b9060005260206000200154141561043b5781600183805490506103d29190611072565b815481106103e3576103e2611014565b5b906000526020600020015482828154811061040157610400611014565b5b9060005260206000200181905550818054806104205761041f6110a6565b5b6001900381819060005260206000200160009055905561044e565b8080610446906110d5565b91505061038f565b50826001600086815260200190815260200160002060030160006101000a81548173ffffffffffffffffffffffffffffffffffffffff021916908373ffffffffffffffffffffffffffffffffffffffff160217905550600260008473ffffffffffffffffffffffffffffffffffffffff1673ffffffffffffffffffffffffffffffffffffffff1681526020019081526020016000208490806001815401808255809150506001900390600052602060002001600090919091909150557f1080b2f211753e5090f26ef7ffdc6bb3e66a125c7290200d10b502160bb1f56684338560405161053d9392919061111e565b60405180910390a150505050565b60008081548092919061055d906110d5565b9190505550604051806080016040528060005481526020018381526020018281526020013373ffffffffffffffffffffffffffffffffffffffff1681525060016000805481526020019081526020016000206000820151816000015560208201518160010190805190602001906105d5929190610924565b506040820151816002015560608201518160030160006101000a81548173ffffffffffffffffffffffffffffffffffffffff021916908373ffffffffffffffffffffffffffffffffffffffff160217905550905050600260003373ffffffffffffffffffffffffffffffffffffffff1673ffffffffffffffffffffffffffffffffffffffff16815260200190815260200160002060005490806001815401808255809150506001900390600052602060002001600090919091909150557f09f87bd638cbe9814396205461896d192bb615baa655b37f43ef8414a75b7fd56000543384846040516106c99493929190611155565b60405180910390a15050565b600260205281600052604060002081815481106106f157600080fd5b90600052602060002001600091509150505481565b60005481565b6001602052806000526040600020600091509050806000015490806001018054610735906111d0565b80601f0160208091040260200160405190810160405280929190818152602001828054610761906111d0565b80156107ae5780601f10610783576101008083540402835291602001916107ae565b820191906000526020600020905b81548152906001019060200180831161079157829003601f168201915b5050505050908060020154908060030160009054906101000a900473ffffffffffffffffffffffffffffffffffffffff16905084565b606060008060006001600086815260200190815260200160002060405180608001604052908160008201548152602001600182018054610823906111d0565b80601f016020809104026020016040519081016040528092919081815260200182805461084f906111d0565b801561089c5780601f106108715761010080835404028352916020019161089c565b820191906000526020600020905b81548152906001019060200180831161087f57829003601f168201915b50505050508152602001600282015481526020016003820160009054906101000a900473ffffffffffffffffffffffffffffffffffffffff1673ffffffffffffffffffffffffffffffffffffffff1673ffffffffffffffffffffffffffffffffffffffff16815250509050806020015181604001518260600151935093509350509193909250565b828054610930906111d0565b90600052602060002090601f0160209004810192826109525760008555610999565b82601f1061096b57805160ff1916838001178555610999565b82800160010185558215610999579182015b8281111561099857825182559160200191906001019061097d565b5b5090506109a691906109aa565b5090565b5b808211156109c35760008160009055506001016109ab565b5090565b6000604051905090565b600080fd5b600080fd5b600073ffffffffffffffffffffffffffffffffffffffff82169050919050565b6000610a06826109db565b9050919050565b610a16816109fb565b8114610a2157600080fd5b50565b600081359050610a3381610a0d565b92915050565b600060208284031215610a4f57610a4e6109d1565b5b6000610a5d84828501610a24565b91505092915050565b600081519050919050565b600082825260208201905092915050565b6000819050602082019050919050565b6000819050919050565b610aa581610a92565b82525050565b6000610ab78383610a9c565b60208301905092915050565b6000602082019050919050565b6000610adb82610a66565b610ae58185610a71565b9350610af083610a82565b8060005b83811015610b21578151610b088882610aab565b9750610b1383610ac3565b925050600181019050610af4565b5085935050505092915050565b60006020820190508181036000830152610b488184610ad0565b905092915050565b610b5981610a92565b8114610b6457600080fd5b50565b600081359050610b7681610b50565b92915050565b60008060408385031215610b9357610b926109d1565b5b6000610ba185828601610b67565b9250506020610bb285828601610a24565b9150509250929050565b600080fd5b600080fd5b6000601f19601f8301169050919050565b7f4e487b7100000000000000000000000000000000000000000000000000000000600052604160045260246000fd5b610c0f82610bc6565b810181811067ffffffffffffffff82111715610c2e57610c2d610bd7565b5b80604052505050565b6000610c416109c7565b9050610c4d8282610c06565b919050565b600067ffffffffffffffff821115610c6d57610c6c610bd7565b5b610c7682610bc6565b9050602081019050919050565b82818337600083830152505050565b6000610ca5610ca084610c52565b610c37565b905082815260208101848484011115610cc157610cc0610bc1565b5b610ccc848285610c83565b509392505050565b600082601f830112610ce957610ce8610bbc565b5b8135610cf9848260208601610c92565b91505092915050565b60008060408385031215610d1957610d186109d1565b5b600083013567ffffffffffffffff811115610d3757610d366109d6565b5b610d4385828601610cd4565b9250506020610d5485828601610b67565b9150509250929050565b60008060408385031215610d7557610d746109d1565b5b6000610d8385828601610a24565b9250506020610d9485828601610b67565b9150509250929050565b610da781610a92565b82525050565b6000602082019050610dc26000830184610d9e565b92915050565b600060208284031215610dde57610ddd6109d1565b5b6000610dec84828501610b67565b91505092915050565b600081519050919050565b600082825260208201905092915050565b60005b83811015610e2f578082015181840152602081019050610e14565b83811115610e3e576000848401525b50505050565b6000610e4f82610df5565b610e598185610e00565b9350610e69818560208601610e11565b610e7281610bc6565b840191505092915050565b610e86816109fb565b82525050565b6000608082019050610ea16000830187610d9e565b8181036020830152610eb38186610e44565b9050610ec26040830185610d9e565b610ecf6060830184610e7d565b95945050505050565b60006060820190508181036000830152610ef28186610e44565b9050610f016020830185610d9e565b610f0e6040830184610e7d565b949350505050565b7f596f7520617265206e6f7420746865206f776e6572206f662074686973206c6160008201527f6e64000000000000000000000000000000000000000000000000000000000000602082015250565b6000610f72602283610e00565b9150610f7d82610f16565b604082019050919050565b60006020820190508181036000830152610fa181610f65565b9050919050565b7f496e76616c696420616464726573730000000000000000000000000000000000600082015250565b6000610fde600f83610e00565b9150610fe982610fa8565b602082019050919050565b6000602082019050818103600083015261100d81610fd1565b9050919050565b7f4e487b7100000000000000000000000000000000000000000000000000000000600052603260045260246000fd5b7f4e487b7100000000000000000000000000000000000000000000000000000000600052601160045260246000fd5b600061107d82610a92565b915061108883610a92565b92508282101561109b5761109a611043565b5b828203905092915050565b7f4e487b7100000000000000000000000000000000000000000000000000000000600052603160045260246000fd5b60006110e082610a92565b91507fffffffffffffffffffffffffffffffffffffffffffffffffffffffffffffffff82141561111357611112611043565b5b600182019050919050565b60006060820190506111336000830186610d9e565b6111406020830185610e7d565b61114d6040830184610e7d565b949350505050565b600060808201905061116a6000830187610d9e565b6111776020830186610e7d565b81810360408301526111898185610e44565b90506111986060830184610d9e565b95945050505050565b7f4e487b7100000000000000000000000000000000000000000000000000000000600052602260045260246000fd5b600060028204905060018216806111e857607f821691505b602082108114156111fc576111fb6111a1565b5b5091905056fea26469706673582212203e8e74eec45c83c99b58224ec14adcb44ee80d7706aaa4007b2734f1b591d57b64736f6c63430008090033",
  "immutableReferences": {},
  "source": "// SPDX-License-Identifier: MIT\npragma solidity >=0.4.22 <0.9.0;\n\ncontract LandRegistry {\n    struct Land {\n        uint256 id;\n        string location;\n        uint256 area;\n        address owner;\n    }\n\n    uint256 public landCount;\n    mapping(uint256 => Land) public lands;\n    mapping(address => uint256[]) public ownerLands;\n\n    event LandRegistered(\n        uint256 id,\n        address owner,\n        string location,\n        uint256 area\n    );\n    event LandTransferred(uint256 id, address from, address to);\n\n    constructor() {\n        landCount = 0;\n    }\n\n    modifier onlyOwner(uint256 _landId) {\n        require(\n            lands[_landId].owner == msg.sender,\n            \"You are not the owner of this land\"\n        );\n        _;\n    }\n\n    //registers land\n    function registerLand(string memory _location, uint256 _area) public {\n        landCount++;\n        lands[landCount] = Land(landCount, _location, _area, msg.sender);\n        ownerLands[msg.sender].push(landCount);\n        emit LandRegistered(landCount, msg.sender, _location, _area);\n    }\n\n    function transferLand(\n        uint256 _landId,\n        address _to\n    ) public onlyOwner(_landId) {\n        require(_to != address(0), \"Invalid address\");\n\n        // remove landId from current owner's list\n        uint256[] storage ownerLandList = ownerLands[msg.sender];\n        for (uint256 i = 0; i < ownerLandList.length; i++) {\n            if (ownerLandList[i] == _landId) {\n                ownerLandList[i] = ownerLandList[ownerLandList.length - 1];\n                ownerLandList.pop();\n                break;\n            }\n        }\n\n        // transfer ownership\n        lands[_landId].owner = _to;\n        ownerLands[_to].push(_landId);\n        emit LandTransferred(_landId, msg.sender, _to);\n    }\n\n    //verifies land ownership\n    function verifyLand(\n        uint256 _landId\n    )\n        public\n        view\n        returns (string memory location, uint256 area, address owner)\n    {\n        Land memory land = lands[_landId];\n        return (land.location, land.area, land.owner);\n    }\n\n    function getLandsByOwner(\n        address _owner\n    ) public view returns (uint256[] memory) {\n        return ownerLands[_owner];\n    }\n}\n",
  "sourcePath": "/Users/rishimishra/Documents/GitHub/Final-Year-Project/landregistration/contracts/LandRegistry.sol",
  "compiler": {
    "name": "solc",
    "version": "0.8.9+commit.e5eed63a.Emscripten.clang"
  },
  "schemaVersion": "3.4.16",
  "updatedAt": "2025-02-22T10:28:49.197Z",
  "networkType": "ethereum",
  "devdoc": {
    "kind": "dev",
    "methods": {},
    "version": 1
  },
  "userdoc": {
    "kind": "user",
    "methods": {},
    "version": 1
  }
}