{
  "contractName": "LandRegistry",
  "abi": [
    {
      "inputs": [],
      "stateMutability": "nonpayable",
      "type": "constructor"
    },
    {
      "anonymous": false,
      "inputs": [
        {
          "indexed": false,
          "internalType": "uint256",
          "name": "id",
          "type": "uint256"
        },
        {
          "indexed": false,
          "internalType": "address",
          "name": "owner",
          "type": "address"
        }
      ],
      "name": "LandForSale",
      "type": "event"
    },
    {
      "anonymous": false,
      "inputs": [
        {
          "indexed": false,
          "internalType": "uint256",
          "name": "id",
          "type": "uint256"
        },
        {
          "indexed": false,
          "internalType": "address",
          "name": "owner",
          "type": "address"
        },
        {
          "indexed": false,
          "internalType": "string",
          "name": "plotNumber",
          "type": "string"
        },
        {
          "indexed": false,
          "internalType": "string",
          "name": "area",
          "type": "string"
        },
        {
          "indexed": false,
          "internalType": "string",
          "name": "district",
          "type": "string"
        },
        {
          "indexed": false,
          "internalType": "string",
          "name": "city",
          "type": "string"
        },
        {
          "indexed": false,
          "internalType": "string",
          "name": "state",
          "type": "string"
        },
        {
          "indexed": false,
          "internalType": "uint256",
          "name": "areaSqYd",
          "type": "uint256"
        }
      ],
      "name": "LandRegistered",
      "type": "event"
    },
    {
      "anonymous": false,
      "inputs": [
        {
          "indexed": false,
          "internalType": "uint256",
          "name": "id",
          "type": "uint256"
        },
        {
          "indexed": false,
          "internalType": "address",
          "name": "from",
          "type": "address"
        },
        {
          "indexed": false,
          "internalType": "address",
          "name": "to",
          "type": "address"
        }
      ],
      "name": "LandTransferred",
      "type": "event"
    },
    {
      "anonymous": false,
      "inputs": [
        {
          "indexed": false,
          "internalType": "uint256",
          "name": "id",
          "type": "uint256"
        },
        {
          "indexed": false,
          "internalType": "address",
          "name": "newOwner",
          "type": "address"
        }
      ],
      "name": "TransferApproved",
      "type": "event"
    },
    {
      "anonymous": false,
      "inputs": [
        {
          "indexed": false,
          "internalType": "uint256",
          "name": "id",
          "type": "uint256"
        },
        {
          "indexed": false,
          "internalType": "address",
          "name": "requester",
          "type": "address"
        }
      ],
      "name": "TransferDenied",
      "type": "event"
    },
    {
      "anonymous": false,
      "inputs": [
        {
          "indexed": false,
          "internalType": "uint256",
          "name": "id",
          "type": "uint256"
        },
        {
          "indexed": false,
          "internalType": "address",
          "name": "requester",
          "type": "address"
        }
      ],
      "name": "TransferRequested",
      "type": "event"
    },
    {
      "inputs": [],
      "name": "admin",
      "outputs": [
        {
          "internalType": "address",
          "name": "",
          "type": "address"
        }
      ],
      "stateMutability": "view",
      "type": "function",
      "constant": true
    },
    {
      "inputs": [],
      "name": "landCount",
      "outputs": [
        {
          "internalType": "uint256",
          "name": "",
          "type": "uint256"
        }
      ],
      "stateMutability": "view",
      "type": "function",
      "constant": true
    },
    {
      "inputs": [
        {
          "internalType": "uint256",
          "name": "",
          "type": "uint256"
        },
        {
          "internalType": "uint256",
          "name": "",
          "type": "uint256"
        }
      ],
      "name": "landOwnershipHistory",
      "outputs": [
        {
          "internalType": "address",
          "name": "owner",
          "type": "address"
        },
        {
          "internalType": "uint256",
          "name": "timestamp",
          "type": "uint256"
        }
      ],
      "stateMutability": "view",
      "type": "function",
      "constant": true
    },
    {
      "inputs": [
        {
          "internalType": "uint256",
          "name": "",
          "type": "uint256"
        }
      ],
      "name": "lands",
      "outputs": [
        {
          "internalType": "uint256",
          "name": "id",
          "type": "uint256"
        },
        {
          "internalType": "string",
          "name": "plotNumber",
          "type": "string"
        },
        {
          "internalType": "string",
          "name": "area",
          "type": "string"
        },
        {
          "internalType": "string",
          "name": "district",
          "type": "string"
        },
        {
          "internalType": "string",
          "name": "city",
          "type": "string"
        },
        {
          "internalType": "string",
          "name": "state",
          "type": "string"
        },
        {
          "internalType": "uint256",
          "name": "areaSqYd",
          "type": "uint256"
        },
        {
          "internalType": "address",
          "name": "owner",
          "type": "address"
        },
        {
          "internalType": "bool",
          "name": "isForSale",
          "type": "bool"
        },
        {
          "internalType": "address",
          "name": "transferRequest",
          "type": "address"
        }
      ],
      "stateMutability": "view",
      "type": "function",
      "constant": true
    },
    {
      "inputs": [
        {
          "internalType": "address",
          "name": "",
          "type": "address"
        },
        {
          "internalType": "uint256",
          "name": "",
          "type": "uint256"
        }
      ],
      "name": "ownerLands",
      "outputs": [
        {
          "internalType": "uint256",
          "name": "",
          "type": "uint256"
        }
      ],
      "stateMutability": "view",
      "type": "function",
      "constant": true
    },
    {
      "inputs": [
        {
          "internalType": "string",
          "name": "_plotNumber",
          "type": "string"
        },
        {
          "internalType": "string",
          "name": "_area",
          "type": "string"
        },
        {
          "internalType": "string",
          "name": "_district",
          "type": "string"
        },
        {
          "internalType": "string",
          "name": "_city",
          "type": "string"
        },
        {
          "internalType": "string",
          "name": "_state",
          "type": "string"
        },
        {
          "internalType": "uint256",
          "name": "_areaSqYd",
          "type": "uint256"
        }
      ],
      "name": "registerLand",
      "outputs": [],
      "stateMutability": "nonpayable",
      "type": "function"
    },
    {
      "inputs": [
        {
          "internalType": "uint256",
          "name": "_landId",
          "type": "uint256"
        }
      ],
      "name": "putLandForSale",
      "outputs": [],
      "stateMutability": "nonpayable",
      "type": "function"
    },
    {
      "inputs": [
        {
          "internalType": "uint256",
          "name": "_landId",
          "type": "uint256"
        }
      ],
      "name": "requestTransfer",
      "outputs": [],
      "stateMutability": "nonpayable",
      "type": "function"
    },
    {
      "inputs": [
        {
          "internalType": "uint256",
          "name": "_landId",
          "type": "uint256"
        }
      ],
      "name": "approveTransfer",
      "outputs": [],
      "stateMutability": "nonpayable",
      "type": "function"
    },
    {
      "inputs": [
        {
          "internalType": "uint256",
          "name": "_landId",
          "type": "uint256"
        }
      ],
      "name": "denyTransfer",
      "outputs": [],
      "stateMutability": "nonpayable",
      "type": "function"
    },
    {
      "inputs": [
        {
          "internalType": "uint256",
          "name": "_landId",
          "type": "uint256"
        }
      ],
      "name": "verifyLand",
      "outputs": [
        {
          "internalType": "string",
          "name": "plotNumber",
          "type": "string"
        },
        {
          "internalType": "string",
          "name": "area",
          "type": "string"
        },
        {
          "internalType": "string",
          "name": "district",
          "type": "string"
        },
        {
          "internalType": "string",
          "name": "city",
          "type": "string"
        },
        {
          "internalType": "string",
          "name": "state",
          "type": "string"
        },
        {
          "internalType": "uint256",
          "name": "areaSqYd",
          "type": "uint256"
        },
        {
          "internalType": "address",
          "name": "owner",
          "type": "address"
        }
      ],
      "stateMutability": "view",
      "type": "function",
      "constant": true
    },
    {
      "inputs": [
        {
          "internalType": "address",
          "name": "_owner",
          "type": "address"
        }
      ],
      "name": "getLandsByOwner",
      "outputs": [
        {
          "internalType": "uint256[]",
          "name": "",
          "type": "uint256[]"
        }
      ],
      "stateMutability": "view",
      "type": "function",
      "constant": true
    },
    {
      "inputs": [
        {
          "internalType": "address",
          "name": "_owner",
          "type": "address"
        }
      ],
      "name": "getPendingTransferRequests",
      "outputs": [
        {
          "internalType": "uint256[]",
          "name": "",
          "type": "uint256[]"
        }
      ],
      "stateMutability": "view",
      "type": "function",
      "constant": true
    },
    {
      "inputs": [],
      "name": "getAllLands",
      "outputs": [
        {
          "components": [
            {
              "internalType": "uint256",
              "name": "id",
              "type": "uint256"
            },
            {
              "internalType": "string",
              "name": "plotNumber",
              "type": "string"
            },
            {
              "internalType": "string",
              "name": "area",
              "type": "string"
            },
            {
              "internalType": "string",
              "name": "district",
              "type": "string"
            },
            {
              "internalType": "string",
              "name": "city",
              "type": "string"
            },
            {
              "internalType": "string",
              "name": "state",
              "type": "string"
            },
            {
              "internalType": "uint256",
              "name": "areaSqYd",
              "type": "uint256"
            },
            {
              "internalType": "address",
              "name": "owner",
              "type": "address"
            },
            {
              "internalType": "bool",
              "name": "isForSale",
              "type": "bool"
            },
            {
              "internalType": "address",
              "name": "transferRequest",
              "type": "address"
            }
          ],
          "internalType": "struct LandRegistry.Land[]",
          "name": "",
          "type": "tuple[]"
        }
      ],
      "stateMutability": "view",
      "type": "function",
      "constant": true
    },
    {
      "inputs": [
        {
          "internalType": "uint256",
          "name": "_landId",
          "type": "uint256"
        }
      ],
      "name": "getPastOwnershipDetails",
      "outputs": [
        {
          "components": [
            {
              "internalType": "address",
              "name": "owner",
              "type": "address"
            },
            {
              "internalType": "uint256",
              "name": "timestamp",
              "type": "uint256"
            }
          ],
          "internalType": "struct LandRegistry.OwnershipHistory[]",
          "name": "",
          "type": "tuple[]"
        }
      ],
      "stateMutability": "view",
      "type": "function",
      "constant": true
    }
  ],
  "bytecode": "0x608060405234801561001057600080fd5b506000808190555033600460006101000a81548173ffffffffffffffffffffffffffffffffffffffff021916908373ffffffffffffffffffffffffffffffffffffffff1602179055506133e6806100686000396000f3fe608060405234801561001057600080fd5b50600436106100f55760003560e01c8063b7b6e54311610097578063e261f1e511610066578063e261f1e514610282578063e6ba2859146102bb578063f851a440146102ec578063f9c43bdf1461030a576100f5565b8063b7b6e543146101fa578063cacca4a014610218578063d0dea6e214610234578063d7bce65814610264576100f5565b80634d3edb76116100d35780634d3edb76146101765780637f092fa9146101925780638a921a9a146101ae578063b2882724146101ca576100f5565b80630f6f51d4146100fa57806334d2b2aa14610116578063455b9d2314610146575b600080fd5b610114600480360381019061010f919061258c565b610340565b005b610130600480360381019061012b9190612703565b6106ad565b60405161013d91906127ee565b60405180910390f35b610160600480360381019061015b9190612703565b61093c565b60405161016d91906127ee565b60405180910390f35b610190600480360381019061018b9190612810565b6109d3565b005b6101ac60048036038101906101a79190612810565b610bed565b005b6101c860048036038101906101c39190612810565b610cfd565b005b6101e460048036038101906101df9190612810565b610f3b565b6040516101f1919061292a565b60405180910390f35b61020261109d565b60405161020f9190612ba7565b60405180910390f35b610232600480360381019061022d9190612810565b6115b1565b005b61024e60048036038101906102499190612bc9565b611ab1565b60405161025b9190612c18565b60405180910390f35b61026c611ae2565b6040516102799190612c18565b60405180910390f35b61029c60048036038101906102979190612810565b611ae8565b6040516102b29a99989796959493929190612c9b565b60405180910390f35b6102d560048036038101906102d09190612d5a565b611e31565b6040516102e3929190612d9a565b60405180910390f35b6102f4611e92565b6040516103019190612dc3565b60405180910390f35b610324600480360381019061031f9190612810565b611eb8565b6040516103379796959493929190612dde565b60405180910390f35b60008081548092919061035290612e9f565b919050555060405180610140016040528060005481526020018781526020018681526020018581526020018481526020018381526020018281526020013373ffffffffffffffffffffffffffffffffffffffff168152602001600015158152602001600073ffffffffffffffffffffffffffffffffffffffff1681525060016000805481526020019081526020016000206000820151816000015560208201518160010190805190602001906104099291906122d8565b5060408201518160020190805190602001906104269291906122d8565b5060608201518160030190805190602001906104439291906122d8565b5060808201518160040190805190602001906104609291906122d8565b5060a082015181600501908051906020019061047d9291906122d8565b5060c0820151816006015560e08201518160070160006101000a81548173ffffffffffffffffffffffffffffffffffffffff021916908373ffffffffffffffffffffffffffffffffffffffff1602179055506101008201518160070160146101000a81548160ff0219169083151502179055506101208201518160080160006101000a81548173ffffffffffffffffffffffffffffffffffffffff021916908373ffffffffffffffffffffffffffffffffffffffff160217905550905050600260003373ffffffffffffffffffffffffffffffffffffffff1673ffffffffffffffffffffffffffffffffffffffff1681526020019081526020016000206000549080600181540180825580915050600190039060005260206000200160009091909190915055600360008054815260200190815260200160002060405180604001604052803373ffffffffffffffffffffffffffffffffffffffff16815260200142815250908060018154018082558091505060019003906000526020600020906002020160009091909190915060008201518160000160006101000a81548173ffffffffffffffffffffffffffffffffffffffff021916908373ffffffffffffffffffffffffffffffffffffffff1602179055506020820151816001015550507f6d81efbcb09ef06d8116b0da49e16c5d09a2b4d93f9f899446ca1a08c5cd09e96000543388888888888860405161069d989796959493929190612ee8565b60405180910390a1505050505050565b60606000600260008473ffffffffffffffffffffffffffffffffffffffff1673ffffffffffffffffffffffffffffffffffffffff16815260200190815260200160002080548060200260200160405190810160405280929190818152602001828054801561073a57602002820191906000526020600020905b815481526020019060010190808311610726575b505050505090506000805b82518110156107f457600073ffffffffffffffffffffffffffffffffffffffff166001600085848151811061077d5761077c612f89565b5b6020026020010151815260200190815260200160002060080160009054906101000a900473ffffffffffffffffffffffffffffffffffffffff1673ffffffffffffffffffffffffffffffffffffffff16146107e15781806107dd90612e9f565b9250505b80806107ec90612e9f565b915050610745565b5060008167ffffffffffffffff8111156108115761081061242b565b5b60405190808252806020026020018201604052801561083f5781602001602082028036833780820191505090505b5090506000805b845181101561092f57600073ffffffffffffffffffffffffffffffffffffffff166001600087848151811061087e5761087d612f89565b5b6020026020010151815260200190815260200160002060080160009054906101000a900473ffffffffffffffffffffffffffffffffffffffff1673ffffffffffffffffffffffffffffffffffffffff161461091c578481815181106108e6576108e5612f89565b5b602002602001015183838151811061090157610900612f89565b5b602002602001018181525050818061091890612e9f565b9250505b808061092790612e9f565b915050610846565b5081945050505050919050565b6060600260008373ffffffffffffffffffffffffffffffffffffffff1673ffffffffffffffffffffffffffffffffffffffff1681526020019081526020016000208054806020026020016040519081016040528092919081815260200182805480156109c757602002820191906000526020600020905b8154815260200190600101908083116109b3575b50505050509050919050565b803373ffffffffffffffffffffffffffffffffffffffff166001600083815260200190815260200160002060070160009054906101000a900473ffffffffffffffffffffffffffffffffffffffff1673ffffffffffffffffffffffffffffffffffffffff1614610a78576040517f08c379a0000000000000000000000000000000000000000000000000000000008152600401610a6f9061302a565b60405180910390fd5b600073ffffffffffffffffffffffffffffffffffffffff166001600084815260200190815260200160002060080160009054906101000a900473ffffffffffffffffffffffffffffffffffffffff1673ffffffffffffffffffffffffffffffffffffffff161415610b1e576040517f08c379a0000000000000000000000000000000000000000000000000000000008152600401610b1590613096565b60405180910390fd5b60006001600084815260200190815260200160002060080160009054906101000a900473ffffffffffffffffffffffffffffffffffffffff16905060006001600085815260200190815260200160002060080160006101000a81548173ffffffffffffffffffffffffffffffffffffffff021916908373ffffffffffffffffffffffffffffffffffffffff1602179055507f041572a588520d2c09ac323b58f1d9b0c1f516a65d93e8d1a13433fddfefed058382604051610be09291906130b6565b60405180910390a1505050565b803373ffffffffffffffffffffffffffffffffffffffff166001600083815260200190815260200160002060070160009054906101000a900473ffffffffffffffffffffffffffffffffffffffff1673ffffffffffffffffffffffffffffffffffffffff1614610c92576040517f08c379a0000000000000000000000000000000000000000000000000000000008152600401610c899061302a565b60405180910390fd5b600180600084815260200190815260200160002060070160146101000a81548160ff0219169083151502179055507f51e6f3eba237bf90825acfdc7a247609979c40c5e56ccf677d9a76459b2588ea8233604051610cf19291906130b6565b60405180910390a15050565b6001600082815260200190815260200160002060070160149054906101000a900460ff16610d60576040517f08c379a0000000000000000000000000000000000000000000000000000000008152600401610d579061312b565b60405180910390fd5b600073ffffffffffffffffffffffffffffffffffffffff166001600083815260200190815260200160002060080160009054906101000a900473ffffffffffffffffffffffffffffffffffffffff1673ffffffffffffffffffffffffffffffffffffffff1614610e05576040517f08c379a0000000000000000000000000000000000000000000000000000000008152600401610dfc90613197565b60405180910390fd5b6001600082815260200190815260200160002060070160009054906101000a900473ffffffffffffffffffffffffffffffffffffffff1673ffffffffffffffffffffffffffffffffffffffff163373ffffffffffffffffffffffffffffffffffffffff161415610eaa576040517f08c379a0000000000000000000000000000000000000000000000000000000008152600401610ea190613203565b60405180910390fd5b336001600083815260200190815260200160002060080160006101000a81548173ffffffffffffffffffffffffffffffffffffffff021916908373ffffffffffffffffffffffffffffffffffffffff1602179055507f8b7f6b89f2cf0bff8d270c9d1595e3f21d27edbb9c103c1b45f9d882ec0e73248133604051610f309291906130b6565b60405180910390a150565b6060600460009054906101000a900473ffffffffffffffffffffffffffffffffffffffff1673ffffffffffffffffffffffffffffffffffffffff163373ffffffffffffffffffffffffffffffffffffffff1614610fcd576040517f08c379a0000000000000000000000000000000000000000000000000000000008152600401610fc490613295565b60405180910390fd5b60036000838152602001908152602001600020805480602002602001604051908101604052809291908181526020016000905b8282101561109257838290600052602060002090600202016040518060400160405290816000820160009054906101000a900473ffffffffffffffffffffffffffffffffffffffff1673ffffffffffffffffffffffffffffffffffffffff1673ffffffffffffffffffffffffffffffffffffffff16815260200160018201548152505081526020019060010190611000565b505050509050919050565b6060600460009054906101000a900473ffffffffffffffffffffffffffffffffffffffff1673ffffffffffffffffffffffffffffffffffffffff163373ffffffffffffffffffffffffffffffffffffffff161461112f576040517f08c379a000000000000000000000000000000000000000000000000000000000815260040161112690613295565b60405180910390fd5b6000805467ffffffffffffffff81111561114c5761114b61242b565b5b60405190808252806020026020018201604052801561118557816020015b61117261235e565b81526020019060019003908161116a5790505b5090506000600190505b60005481116115a9576001600082815260200190815260200160002060405180610140016040529081600082015481526020016001820180546111d1906132e4565b80601f01602080910402602001604051908101604052809291908181526020018280546111fd906132e4565b801561124a5780601f1061121f5761010080835404028352916020019161124a565b820191906000526020600020905b81548152906001019060200180831161122d57829003601f168201915b50505050508152602001600282018054611263906132e4565b80601f016020809104026020016040519081016040528092919081815260200182805461128f906132e4565b80156112dc5780601f106112b1576101008083540402835291602001916112dc565b820191906000526020600020905b8154815290600101906020018083116112bf57829003601f168201915b505050505081526020016003820180546112f5906132e4565b80601f0160208091040260200160405190810160405280929190818152602001828054611321906132e4565b801561136e5780601f106113435761010080835404028352916020019161136e565b820191906000526020600020905b81548152906001019060200180831161135157829003601f168201915b50505050508152602001600482018054611387906132e4565b80601f01602080910402602001604051908101604052809291908181526020018280546113b3906132e4565b80156114005780601f106113d557610100808354040283529160200191611400565b820191906000526020600020905b8154815290600101906020018083116113e357829003601f168201915b50505050508152602001600582018054611419906132e4565b80601f0160208091040260200160405190810160405280929190818152602001828054611445906132e4565b80156114925780601f1061146757610100808354040283529160200191611492565b820191906000526020600020905b81548152906001019060200180831161147557829003601f168201915b50505050508152602001600682015481526020016007820160009054906101000a900473ffffffffffffffffffffffffffffffffffffffff1673ffffffffffffffffffffffffffffffffffffffff1673ffffffffffffffffffffffffffffffffffffffff1681526020016007820160149054906101000a900460ff161515151581526020016008820160009054906101000a900473ffffffffffffffffffffffffffffffffffffffff1673ffffffffffffffffffffffffffffffffffffffff1673ffffffffffffffffffffffffffffffffffffffff16815250508260018361157a9190613316565b8151811061158b5761158a612f89565b5b602002602001018190525080806115a190612e9f565b91505061118f565b508091505090565b803373ffffffffffffffffffffffffffffffffffffffff166001600083815260200190815260200160002060070160009054906101000a900473ffffffffffffffffffffffffffffffffffffffff1673ffffffffffffffffffffffffffffffffffffffff1614611656576040517f08c379a000000000000000000000000000000000000000000000000000000000815260040161164d9061302a565b60405180910390fd5b600073ffffffffffffffffffffffffffffffffffffffff166001600084815260200190815260200160002060080160009054906101000a900473ffffffffffffffffffffffffffffffffffffffff1673ffffffffffffffffffffffffffffffffffffffff1614156116fc576040517f08c379a00000000000000000000000000000000000000000000000000000000081526004016116f390613096565b60405180910390fd5b60006001600084815260200190815260200160002060080160009054906101000a900473ffffffffffffffffffffffffffffffffffffffff1690506000600260003373ffffffffffffffffffffffffffffffffffffffff1673ffffffffffffffffffffffffffffffffffffffff168152602001908152602001600020905060005b818054905081101561183c578482828154811061179d5761179c612f89565b5b906000526020600020015414156118295781600183805490506117c09190613316565b815481106117d1576117d0612f89565b5b90600052602060002001548282815481106117ef576117ee612f89565b5b90600052602060002001819055508180548061180e5761180d61334a565b5b6001900381819060005260206000200160009055905561183c565b808061183490612e9f565b91505061177d565b50816001600086815260200190815260200160002060070160006101000a81548173ffffffffffffffffffffffffffffffffffffffff021916908373ffffffffffffffffffffffffffffffffffffffff16021790555060006001600086815260200190815260200160002060070160146101000a81548160ff02191690831515021790555060006001600086815260200190815260200160002060080160006101000a81548173ffffffffffffffffffffffffffffffffffffffff021916908373ffffffffffffffffffffffffffffffffffffffff160217905550600260008373ffffffffffffffffffffffffffffffffffffffff1673ffffffffffffffffffffffffffffffffffffffff1681526020019081526020016000208490806001815401808255809150506001900390600052602060002001600090919091909150556003600085815260200190815260200160002060405180604001604052808473ffffffffffffffffffffffffffffffffffffffff16815260200142815250908060018154018082558091505060019003906000526020600020906002020160009091909190915060008201518160000160006101000a81548173ffffffffffffffffffffffffffffffffffffffff021916908373ffffffffffffffffffffffffffffffffffffffff1602179055506020820151816001015550507f1080b2f211753e5090f26ef7ffdc6bb3e66a125c7290200d10b502160bb1f566843384604051611a6a93929190613379565b60405180910390a17fa4269914b1afdc8f7e4c3aa6794f0de6e37f00884fb97ea9288a1d68ba7de67b8483604051611aa39291906130b6565b60405180910390a150505050565b60026020528160005260406000208181548110611acd57600080fd5b90600052602060002001600091509150505481565b60005481565b6001602052806000526040600020600091509050806000015490806001018054611b11906132e4565b80601f0160208091040260200160405190810160405280929190818152602001828054611b3d906132e4565b8015611b8a5780601f10611b5f57610100808354040283529160200191611b8a565b820191906000526020600020905b815481529060010190602001808311611b6d57829003601f168201915b505050505090806002018054611b9f906132e4565b80601f0160208091040260200160405190810160405280929190818152602001828054611bcb906132e4565b8015611c185780601f10611bed57610100808354040283529160200191611c18565b820191906000526020600020905b815481529060010190602001808311611bfb57829003601f168201915b505050505090806003018054611c2d906132e4565b80601f0160208091040260200160405190810160405280929190818152602001828054611c59906132e4565b8015611ca65780601f10611c7b57610100808354040283529160200191611ca6565b820191906000526020600020905b815481529060010190602001808311611c8957829003601f168201915b505050505090806004018054611cbb906132e4565b80601f0160208091040260200160405190810160405280929190818152602001828054611ce7906132e4565b8015611d345780601f10611d0957610100808354040283529160200191611d34565b820191906000526020600020905b815481529060010190602001808311611d1757829003601f168201915b505050505090806005018054611d49906132e4565b80601f0160208091040260200160405190810160405280929190818152602001828054611d75906132e4565b8015611dc25780601f10611d9757610100808354040283529160200191611dc2565b820191906000526020600020905b815481529060010190602001808311611da557829003601f168201915b5050505050908060060154908060070160009054906101000a900473ffffffffffffffffffffffffffffffffffffffff16908060070160149054906101000a900460ff16908060080160009054906101000a900473ffffffffffffffffffffffffffffffffffffffff1690508a565b60036020528160005260406000208181548110611e4d57600080fd5b9060005260206000209060020201600091509150508060000160009054906101000a900473ffffffffffffffffffffffffffffffffffffffff16908060010154905082565b600460009054906101000a900473ffffffffffffffffffffffffffffffffffffffff1681565b60608060608060606000806000600160008a81526020019081526020016000206040518061014001604052908160008201548152602001600182018054611efe906132e4565b80601f0160208091040260200160405190810160405280929190818152602001828054611f2a906132e4565b8015611f775780601f10611f4c57610100808354040283529160200191611f77565b820191906000526020600020905b815481529060010190602001808311611f5a57829003601f168201915b50505050508152602001600282018054611f90906132e4565b80601f0160208091040260200160405190810160405280929190818152602001828054611fbc906132e4565b80156120095780601f10611fde57610100808354040283529160200191612009565b820191906000526020600020905b815481529060010190602001808311611fec57829003601f168201915b50505050508152602001600382018054612022906132e4565b80601f016020809104026020016040519081016040528092919081815260200182805461204e906132e4565b801561209b5780601f106120705761010080835404028352916020019161209b565b820191906000526020600020905b81548152906001019060200180831161207e57829003601f168201915b505050505081526020016004820180546120b4906132e4565b80601f01602080910402602001604051908101604052809291908181526020018280546120e0906132e4565b801561212d5780601f106121025761010080835404028352916020019161212d565b820191906000526020600020905b81548152906001019060200180831161211057829003601f168201915b50505050508152602001600582018054612146906132e4565b80601f0160208091040260200160405190810160405280929190818152602001828054612172906132e4565b80156121bf5780601f10612194576101008083540402835291602001916121bf565b820191906000526020600020905b8154815290600101906020018083116121a257829003601f168201915b50505050508152602001600682015481526020016007820160009054906101000a900473ffffffffffffffffffffffffffffffffffffffff1673ffffffffffffffffffffffffffffffffffffffff1673ffffffffffffffffffffffffffffffffffffffff1681526020016007820160149054906101000a900460ff161515151581526020016008820160009054906101000a900473ffffffffffffffffffffffffffffffffffffffff1673ffffffffffffffffffffffffffffffffffffffff1673ffffffffffffffffffffffffffffffffffffffff1681525050905080602001518160400151826060015183608001518460a001518560c001518660e00151975097509750975097509750975050919395979092949650565b8280546122e4906132e4565b90600052602060002090601f016020900481019282612306576000855561234d565b82601f1061231f57805160ff191683800117855561234d565b8280016001018555821561234d579182015b8281111561234c578251825591602001919060010190612331565b5b50905061235a91906123df565b5090565b60405180610140016040528060008152602001606081526020016060815260200160608152602001606081526020016060815260200160008152602001600073ffffffffffffffffffffffffffffffffffffffff168152602001600015158152602001600073ffffffffffffffffffffffffffffffffffffffff1681525090565b5b808211156123f85760008160009055506001016123e0565b5090565b6000604051905090565b600080fd5b600080fd5b600080fd5b600080fd5b6000601f19601f8301169050919050565b7f4e487b7100000000000000000000000000000000000000000000000000000000600052604160045260246000fd5b6124638261241a565b810181811067ffffffffffffffff821117156124825761248161242b565b5b80604052505050565b60006124956123fc565b90506124a1828261245a565b919050565b600067ffffffffffffffff8211156124c1576124c061242b565b5b6124ca8261241a565b9050602081019050919050565b82818337600083830152505050565b60006124f96124f4846124a6565b61248b565b90508281526020810184848401111561251557612514612415565b5b6125208482856124d7565b509392505050565b600082601f83011261253d5761253c612410565b5b813561254d8482602086016124e6565b91505092915050565b6000819050919050565b61256981612556565b811461257457600080fd5b50565b60008135905061258681612560565b92915050565b60008060008060008060c087890312156125a9576125a8612406565b5b600087013567ffffffffffffffff8111156125c7576125c661240b565b5b6125d389828a01612528565b965050602087013567ffffffffffffffff8111156125f4576125f361240b565b5b61260089828a01612528565b955050604087013567ffffffffffffffff8111156126215761262061240b565b5b61262d89828a01612528565b945050606087013567ffffffffffffffff81111561264e5761264d61240b565b5b61265a89828a01612528565b935050608087013567ffffffffffffffff81111561267b5761267a61240b565b5b61268789828a01612528565b92505060a061269889828a01612577565b9150509295509295509295565b600073ffffffffffffffffffffffffffffffffffffffff82169050919050565b60006126d0826126a5565b9050919050565b6126e0816126c5565b81146126eb57600080fd5b50565b6000813590506126fd816126d7565b92915050565b60006020828403121561271957612718612406565b5b6000612727848285016126ee565b91505092915050565b600081519050919050565b600082825260208201905092915050565b6000819050602082019050919050565b61276581612556565b82525050565b6000612777838361275c565b60208301905092915050565b6000602082019050919050565b600061279b82612730565b6127a5818561273b565b93506127b08361274c565b8060005b838110156127e15781516127c8888261276b565b97506127d383612783565b9250506001810190506127b4565b5085935050505092915050565b600060208201905081810360008301526128088184612790565b905092915050565b60006020828403121561282657612825612406565b5b600061283484828501612577565b91505092915050565b600081519050919050565b600082825260208201905092915050565b6000819050602082019050919050565b612872816126c5565b82525050565b60408201600082015161288e6000850182612869565b5060208201516128a1602085018261275c565b50505050565b60006128b38383612878565b60408301905092915050565b6000602082019050919050565b60006128d78261283d565b6128e18185612848565b93506128ec83612859565b8060005b8381101561291d57815161290488826128a7565b975061290f836128bf565b9250506001810190506128f0565b5085935050505092915050565b6000602082019050818103600083015261294481846128cc565b905092915050565b600081519050919050565b600082825260208201905092915050565b6000819050602082019050919050565b600081519050919050565b600082825260208201905092915050565b60005b838110156129b2578082015181840152602081019050612997565b838111156129c1576000848401525b50505050565b60006129d282612978565b6129dc8185612983565b93506129ec818560208601612994565b6129f58161241a565b840191505092915050565b60008115159050919050565b612a1581612a00565b82525050565b600061014083016000830151612a34600086018261275c565b5060208301518482036020860152612a4c82826129c7565b91505060408301518482036040860152612a6682826129c7565b91505060608301518482036060860152612a8082826129c7565b91505060808301518482036080860152612a9a82826129c7565b91505060a083015184820360a0860152612ab482826129c7565b91505060c0830151612ac960c086018261275c565b5060e0830151612adc60e0860182612869565b50610100830151612af1610100860182612a0c565b50610120830151612b06610120860182612869565b508091505092915050565b6000612b1d8383612a1b565b905092915050565b6000602082019050919050565b6000612b3d8261294c565b612b478185612957565b935083602082028501612b5985612968565b8060005b85811015612b955784840389528151612b768582612b11565b9450612b8183612b25565b925060208a01995050600181019050612b5d565b50829750879550505050505092915050565b60006020820190508181036000830152612bc18184612b32565b905092915050565b60008060408385031215612be057612bdf612406565b5b6000612bee858286016126ee565b9250506020612bff85828601612577565b9150509250929050565b612c1281612556565b82525050565b6000602082019050612c2d6000830184612c09565b92915050565b600082825260208201905092915050565b6000612c4f82612978565b612c598185612c33565b9350612c69818560208601612994565b612c728161241a565b840191505092915050565b612c86816126c5565b82525050565b612c9581612a00565b82525050565b600061014082019050612cb1600083018d612c09565b8181036020830152612cc3818c612c44565b90508181036040830152612cd7818b612c44565b90508181036060830152612ceb818a612c44565b90508181036080830152612cff8189612c44565b905081810360a0830152612d138188612c44565b9050612d2260c0830187612c09565b612d2f60e0830186612c7d565b612d3d610100830185612c8c565b612d4b610120830184612c7d565b9b9a5050505050505050505050565b60008060408385031215612d7157612d70612406565b5b6000612d7f85828601612577565b9250506020612d9085828601612577565b9150509250929050565b6000604082019050612daf6000830185612c7d565b612dbc6020830184612c09565b9392505050565b6000602082019050612dd86000830184612c7d565b92915050565b600060e0820190508181036000830152612df8818a612c44565b90508181036020830152612e0c8189612c44565b90508181036040830152612e208188612c44565b90508181036060830152612e348187612c44565b90508181036080830152612e488186612c44565b9050612e5760a0830185612c09565b612e6460c0830184612c7d565b98975050505050505050565b7f4e487b7100000000000000000000000000000000000000000000000000000000600052601160045260246000fd5b6000612eaa82612556565b91507fffffffffffffffffffffffffffffffffffffffffffffffffffffffffffffffff821415612edd57612edc612e70565b5b600182019050919050565b600061010082019050612efe600083018b612c09565b612f0b602083018a612c7d565b8181036040830152612f1d8189612c44565b90508181036060830152612f318188612c44565b90508181036080830152612f458187612c44565b905081810360a0830152612f598186612c44565b905081810360c0830152612f6d8185612c44565b9050612f7c60e0830184612c09565b9998505050505050505050565b7f4e487b7100000000000000000000000000000000000000000000000000000000600052603260045260246000fd5b7f596f7520617265206e6f7420746865206f776e6572206f662074686973206c6160008201527f6e64000000000000000000000000000000000000000000000000000000000000602082015250565b6000613014602283612c33565b915061301f82612fb8565b604082019050919050565b6000602082019050818103600083015261304381613007565b9050919050565b7f4e6f207472616e7366657220726571756573742070656e64696e670000000000600082015250565b6000613080601b83612c33565b915061308b8261304a565b602082019050919050565b600060208201905081810360008301526130af81613073565b9050919050565b60006040820190506130cb6000830185612c09565b6130d86020830184612c7d565b9392505050565b7f4c616e64206973206e6f7420666f722073616c65000000000000000000000000600082015250565b6000613115601483612c33565b9150613120826130df565b602082019050919050565b6000602082019050818103600083015261314481613108565b9050919050565b7f5472616e7366657220616c726561647920726571756573746564000000000000600082015250565b6000613181601a83612c33565b915061318c8261314b565b602082019050919050565b600060208201905081810360008301526131b081613174565b9050919050565b7f4f776e65722063616e6e6f742072657175657374207472616e73666572000000600082015250565b60006131ed601d83612c33565b91506131f8826131b7565b602082019050919050565b6000602082019050818103600083015261321c816131e0565b9050919050565b7f4f6e6c792061646d696e2063616e20706572666f726d2074686973206163746960008201527f6f6e000000000000000000000000000000000000000000000000000000000000602082015250565b600061327f602283612c33565b915061328a82613223565b604082019050919050565b600060208201905081810360008301526132ae81613272565b9050919050565b7f4e487b7100000000000000000000000000000000000000000000000000000000600052602260045260246000fd5b600060028204905060018216806132fc57607f821691505b602082108114156133105761330f6132b5565b5b50919050565b600061332182612556565b915061332c83612556565b92508282101561333f5761333e612e70565b5b828203905092915050565b7f4e487b7100000000000000000000000000000000000000000000000000000000600052603160045260246000fd5b600060608201905061338e6000830186612c09565b61339b6020830185612c7d565b6133a86040830184612c7d565b94935050505056fea26469706673582212204da2ec8e22148d32722244927b0c59a886d75d3e6a3bfde9a672c0c34ebf996a64736f6c63430008090033",
  "immutableReferences": {},
  "source": "// SPDX-License-Identifier: MIT\npragma solidity >=0.4.22 <0.9.0;\n\ncontract LandRegistry {\n    struct Land {\n        uint256 id;\n        string plotNumber;\n        string area;\n        string district;\n        string city;\n        string state;\n        uint256 areaSqYd;\n        address owner;\n        bool isForSale;\n        address transferRequest;\n    }\n\n    struct OwnershipHistory {\n        address owner;\n        uint256 timestamp;\n    }\n\n    uint256 public landCount;\n    mapping(uint256 => Land) public lands;\n    mapping(address => uint256[]) public ownerLands;\n    mapping(uint256 => OwnershipHistory[]) public landOwnershipHistory; // New mapping for ownership history\n    address public admin; // Admin address\n\n    event LandRegistered(\n        uint256 id,\n        address owner,\n        string plotNumber,\n        string area,\n        string district,\n        string city,\n        string state,\n        uint256 areaSqYd\n    );\n    event LandForSale(uint256 id, address owner);\n    event TransferRequested(uint256 id, address requester);\n    event LandTransferred(uint256 id, address from, address to);\n    event TransferApproved(uint256 id, address newOwner);\n    event TransferDenied(uint256 id, address requester);\n\n    constructor() {\n        landCount = 0;\n        admin = msg.sender; // Set deployer as admin\n    }\n\n    modifier onlyOwner(uint256 _landId) {\n        require(\n            lands[_landId].owner == msg.sender,\n            \"You are not the owner of this land\"\n        );\n        _;\n    }\n\n    modifier onlyAdmin() {\n        require(msg.sender == admin, \"Only admin can perform this action\");\n        _;\n    }\n\n    function registerLand(\n        string memory _plotNumber,\n        string memory _area,\n        string memory _district,\n        string memory _city,\n        string memory _state,\n        uint256 _areaSqYd\n    ) public {\n        landCount++;\n        lands[landCount] = Land(\n            landCount,\n            _plotNumber,\n            _area,\n            _district,\n            _city,\n            _state,\n            _areaSqYd,\n            msg.sender,\n            false,\n            address(0)\n        );\n        ownerLands[msg.sender].push(landCount);\n        landOwnershipHistory[landCount].push(\n            OwnershipHistory(msg.sender, block.timestamp)\n        );\n        emit LandRegistered(\n            landCount,\n            msg.sender,\n            _plotNumber,\n            _area,\n            _district,\n            _city,\n            _state,\n            _areaSqYd\n        );\n    }\n\n    function putLandForSale(uint256 _landId) public onlyOwner(_landId) {\n        lands[_landId].isForSale = true;\n        emit LandForSale(_landId, msg.sender);\n    }\n\n    function requestTransfer(uint256 _landId) public {\n        require(lands[_landId].isForSale, \"Land is not for sale\");\n        require(\n            lands[_landId].transferRequest == address(0),\n            \"Transfer already requested\"\n        );\n        require(\n            msg.sender != lands[_landId].owner,\n            \"Owner cannot request transfer\"\n        );\n        lands[_landId].transferRequest = msg.sender;\n        emit TransferRequested(_landId, msg.sender);\n    }\n\n    function approveTransfer(uint256 _landId) public onlyOwner(_landId) {\n        require(\n            lands[_landId].transferRequest != address(0),\n            \"No transfer request pending\"\n        );\n        address newOwner = lands[_landId].transferRequest;\n\n        uint256[] storage ownerLandList = ownerLands[msg.sender];\n        for (uint256 i = 0; i < ownerLandList.length; i++) {\n            if (ownerLandList[i] == _landId) {\n                ownerLandList[i] = ownerLandList[ownerLandList.length - 1];\n                ownerLandList.pop();\n                break;\n            }\n        }\n\n        lands[_landId].owner = newOwner;\n        lands[_landId].isForSale = false;\n        lands[_landId].transferRequest = address(0);\n        ownerLands[newOwner].push(_landId);\n        landOwnershipHistory[_landId].push(\n            OwnershipHistory(newOwner, block.timestamp)\n        );\n\n        emit LandTransferred(_landId, msg.sender, newOwner);\n        emit TransferApproved(_landId, newOwner);\n    }\n\n    function denyTransfer(uint256 _landId) public onlyOwner(_landId) {\n        require(\n            lands[_landId].transferRequest != address(0),\n            \"No transfer request pending\"\n        );\n        address requester = lands[_landId].transferRequest;\n        lands[_landId].transferRequest = address(0);\n        emit TransferDenied(_landId, requester);\n    }\n\n    function verifyLand(\n        uint256 _landId\n    )\n        public\n        view\n        returns (\n            string memory plotNumber,\n            string memory area,\n            string memory district,\n            string memory city,\n            string memory state,\n            uint256 areaSqYd,\n            address owner\n        )\n    {\n        Land memory land = lands[_landId];\n        return (\n            land.plotNumber,\n            land.area,\n            land.district,\n            land.city,\n            land.state,\n            land.areaSqYd,\n            land.owner\n        );\n    }\n\n    function getLandsByOwner(\n        address _owner\n    ) public view returns (uint256[] memory) {\n        return ownerLands[_owner];\n    }\n\n    function getPendingTransferRequests(\n        address _owner\n    ) public view returns (uint256[] memory) {\n        uint256[] memory ownedLands = ownerLands[_owner];\n        uint256 pendingCount = 0;\n\n        for (uint256 i = 0; i < ownedLands.length; i++) {\n            if (lands[ownedLands[i]].transferRequest != address(0)) {\n                pendingCount++;\n            }\n        }\n\n        uint256[] memory pendingRequests = new uint256[](pendingCount);\n        uint256 index = 0;\n        for (uint256 i = 0; i < ownedLands.length; i++) {\n            if (lands[ownedLands[i]].transferRequest != address(0)) {\n                pendingRequests[index] = ownedLands[i];\n                index++;\n            }\n        }\n\n        return pendingRequests;\n    }\n\n    // Admin-only functions\n    function getAllLands() public view onlyAdmin returns (Land[] memory) {\n        Land[] memory allLands = new Land[](landCount);\n        for (uint256 i = 1; i <= landCount; i++) {\n            allLands[i - 1] = lands[i];\n        }\n        return allLands;\n    }\n\n    function getPastOwnershipDetails(\n        uint256 _landId\n    ) public view onlyAdmin returns (OwnershipHistory[] memory) {\n        return landOwnershipHistory[_landId];\n    }\n}\n",
  "sourcePath": "/Users/rishimishra/Documents/GitHub/Final-Year-Project/landregistration/contracts/LandRegistry.sol",
  "compiler": {
    "name": "solc",
    "version": "0.8.9+commit.e5eed63a.Emscripten.clang"
  },
  "schemaVersion": "3.4.16",
  "updatedAt": "2025-02-26T12:56:03.656Z",
  "networkType": "ethereum",
  "devdoc": {
    "kind": "dev",
    "methods": {},
    "version": 1
  },
  "userdoc": {
    "kind": "user",
    "methods": {},
    "version": 1
  }
}